:020000040800F2
:10000000F835002089020008B5610008B7610008D2
:10001000B9610008BB610008BD6100080000000074
:10002000000000000000000000000000C1610008A6
:10003000BF61000800000000C3610008C56100083E
:10004000C7610008C9610008CB610008CD610008E4
:10005000CF610008D1610008D3610008D5610008B4
:10006000D7610008D9610008DB610008DD61000884
:10007000DF610008E1610008E3610008E561000854
:10008000E7610008E9610008EB610008ED61000824
:10009000EF610008F1610008F3610008F5610008F4
:1000A000F7610008F9610008FB610008FD610008C4
:1000B00035630008F1620008F3620008F562000889
:1000C000F7620008F9620008FB620008FD620008A0
:1000D000FF6200080163000803630008056300086D
:1000E00007630008236300082563000827630008EE
:1000F000296300082B6300082D6300082F630008A4
:100100003163000833630008FF61000837630008AB
:10011000396300083B6300083D6300083F63000843
:100120004163000843630008456300084763000813
:1001300000F002F800F05AF80AA090E8000C82449F
:100140008344AAF10107DA4501D100F04FF8AFF27C
:10015000090EBAE80F0013F0010F18BFFB1A43F0A5
:1001600001031847745A0500945A05000A444FF0D9
:10017000000C10F8013B13F0070408BF10F8014B06
:100180001D1108BF10F8015B641E05D010F8016B4B
:10019000641E01F8016BF9D113F0080F1EBF10F8AF
:1001A000014BAD1C0C1B09D16D1E58BF01F801CBD2
:1001B000FAD505E014F8016B01F8016B6D1EF9D555
:1001C0009142D6D37047000000230024002500266A
:1001D000103A28BF78C1FBD8520728BF30C148BFAA
:1001E0000B6070471FB51FBD10B510BD06F0E0F8DD
:1001F0001146FFF7F7FF05F016FE06F0FEF803B410
:10020000FFF7F2FF03BC06F0FFF8000030BF7047B5
:1002100020BF704740BF7047BFF36F8F7047BFF379
:100220004F8F7047BFF35F8F704701DF7047EFF369
:100230001480704780F31488BFF36F8F7047EFF31B
:100240000980704780F309887047EFF30880704792
:1002500080F30888704762B6704772B67047EFF354
:100260001080704771B6704761B67047EFF3138026
:10027000704780F311887047EFF31280704740BADF
:10028000704700BA7047000003480047034804491C
:10029000044A054B7047000031010008F82D00208A
:1002A000F8350020F8310020F831002010B5044660
:1002B000F748204430B1B0F5806F0DD0B0F5C05F85
:1002C0001ED113E00121480201F07AFE00214FF413
:1002D000007001F075FE14E00121880201F070FE4B
:1002E00000214FF4806001F06BFE0AE00121C80399
:1002F00001F066FE00214FF4004001F061FE00E0D5
:1003000000BF00BF10BD30B502460020002350687A
:10031000E04C20400D790C6844EA052420435060ED
:100320009068DD4C2040D1E902542C434D7944EAD9
:10033000450420439060D06A20F470000C7C641E59
:100340001C43E3B240EA0350D06230BD002101609B
:10035000017141718160C16001210174704721B157
:10036000826842F00102826003E0826822F00102AA
:100370008260704721B1826842F48072826003E03B
:10038000826822F480728260704710B50023CBB27D
:100390001AB144681C43446002E044689C434460D2
:1003A00010BD816841F0080181607047014600205E
:1003B0008A6802F008020AB1012000E000207047BC
:1003C000816841F0040181607047014600208A681D
:1003D00002F004020AB1012000E00020704721B1C0
:1003E000826842F4A002826003E0826822F4A002E4
:1003F00082607047014600208A6802F480020AB1D8
:10040000012000E00020704710B50A4600210023BB
:10041000416821F46041531E41EA4331416010BDFF
:1004200021B1426842F40062426003E0426822F473
:10043000006242607047F0B504460D46002000217E
:10044000092D11DDE068A5F10A0606EB460707262F
:1004500006FA07F18843A5F10A0606EB460603FAF9
:1004600006F10843E0600CE0206905EB450707262C
:1004700006FA07F1884305EB450603FA06F108433F
:100480002061072A0FDA606B561E06EB86071F26CF
:1004900006FA07F18843561E06EB860605FA06F1B2
:1004A0000843606322E00D2A0FDA206BD61F06EBAB
:1004B00086071F2606FA07F18843D61F06EB860635
:1004C00005FA06F10843206310E0E06AA2F10D0688
:1004D00006EB86071F2606FA07F18843A2F10D06F0
:1004E00006EB860605FA06F10843E062F0BD21B18D
:1004F000826842F48012826003E0826822F48012F3
:10050000826070470146C86C80B2704763480068DB
:10051000704721B1426842F48062426003E0426861
:1005200022F480624260704721B1426842F48052F6
:10053000426003E0426822F48052426070470A46FB
:100540000021816821F4E04111438160704721B1AD
:10055000826842F40042826003E0826822F4004232
:100560008260704721B1826842F40212826003E027
:10057000826822F4021282607047014600208A6875
:1005800002F400120AB1012000E000207047F0B52B
:1005900004461546002000220026092911DDE068E6
:1005A000A1F10A0707EB470C072707FA0CF2904363
:1005B000A1F10A0707EB470703FA07F21043E060CF
:1005C0000CE0206901EB410C072707FA0CF290437D
:1005D00001EB410703FA07F210432061A06BC0F35F
:1005E0000156EF1C06F1010CA7EB0C0707EB870C7B
:1005F0001F2707FA0CF29043EF1C06F1010CA7EB42
:100600000C0707EB870701FA07F21043A063F0BD60
:1006100010B50A4600210023816B21F44011531EBE
:1006200041EA0351816310BD4250704702465018A1
:10063000806A80B270470A4600214168184B194011
:100640001143416070474162826270470A4600214F
:10065000416821F01F0111434160704740B10F49CB
:100660004439096841F400010C4A443A116007E03A
:100670000A494439096821F40001084A443A1160E2
:1006800070470246002013680B405BB101200AE06E
:1006900000DCFEBFFFFEF0FFFDF7F1FF4C24014040
:1006A000FFFD3FFF00207047CA430260704770B5EE
:1006B00002460020002300240B125568CEB205EA42
:1006C000060415681D4015B10CB1012000E00020A2
:1006D00070BD00220A12D34303607047016821F005
:1006E000010101600021016041608160C160874AB1
:1006F000811A90425BD012DC854AA0EB0201904245
:100700003AD007DC83490144D9B1142922D02829E1
:100710007AD128E0142938D0282975D13EE0B1F5E6
:100720006C7F5BD006DCB1F5627F49D0B1F5677FA5
:100730006AD14CE0B1F5717F57D0B1F5767F63D1C6
:100740005BE073494439496841F00F01704A443A0B
:1007500051605AE06E494439496841F0F0016C4AF1
:10076000443A516051E06A494439496841F4706142
:10077000674A443A516048E065494439496841F460
:100780007041634A443A51603FE0614944394968E5
:1007900041F470215E4A443A516036E05C49443984
:1007A000496841F470015A4A443A51602DE0584971
:1007B0004439496841F07061554A443A516024E037
:1007C0005549096841F00F01534A11601DE0524933
:1007D000096841F0F001504A116016E04E4909687D
:1007E00041F470614C4A11600FE04B49096841F4D3
:1007F0007041494A116008E006E04749096841F440
:100800007021454A116000E000BF00BF704710B57D
:100810000022026847F6F0739A430C6A8B68234300
:100820000C6923434C6923438C692343CC692343DC
:100830004C6A23438C6A23431A430260CB684360AB
:100840000B6883604B68C36010BD0021016041608C
:100850008160C160016141618161C1610162416288
:100860008162704721B1026842F00102026003E038
:10087000026822F00102026070471AB103680B435C
:10088000036002E003688B430360704701464868D9
:1008900080B2704701460020002201F080531BB156
:1008A0001D4B1B1F1A6802E0194B443B1A6802EAF1
:1008B00001030BB1012000E00020704700F08051DF
:1008C00011B11549086002E0114944394860704788
:1008D00001460020002201F080531BB10E4B1B1F6C
:1008E0001A6802E00A4B443B1A6802EA01030BB1A2
:1008F000012000E00020704700F0805111B106494E
:10090000086002E0024944394860704780000240B4
:1009100044000240F8FFFDBF0404024000204C499F
:100920000860091D0860091D0860091D0860494824
:1009300047491431086070478179002946D04449FD
:10094000096802689143424A1160111D09680268F2
:1009500091433F4A121D116001793F4A1144D1F879
:1009600000140268114302793B4B1A44C2F8001488
:1009700037490831096802689143354A08321160E5
:10098000111D096802689143314A0C3211604179A6
:1009900010290ED1111F0968026811432C4A083230
:1009A0001160111D096802681143294A0C32116057
:1009B00018E04179284A1144D1F800140268114323
:1009C0004279254B1A44C2F800140BE00179224AFF
:1009D0001144D1F800140268914302791E4B1A4465
:1009E000C2F8001470470021016001710C214171AF
:1009F0000021817170471649103109680143144A7A
:100A000010321160704701460020114A14321268FA
:100A10000A400AB1012000E0002070470C4914315F
:100A200008607047014600200022094B1B6803EA5A
:100A30000102074B14331B680B4013B10AB10120AC
:100A400000E0002070470249143108607047000040
:100A500000040140FFFF070000000140FD49096854
:100A600001F03801FB4A1160114609680143116029
:100A70007047F849096821F00801F64A11601146EB
:100A80000968014311607047F249096821F01001BB
:100A9000F04A116011460968014311607047EE4841
:100AA000EC494860ED4848607047EA48006940F00A
:100AB0008000E849086170470420E649C96801F0F0
:100AC000010109B101200EE0E249C96801F0040109
:100AD00009B1022007E0DF49C96801F0100109B13E
:100AE000032000E00420704708B500200090FF209C
:100AF000009002E00098401E009000980028F9D174
:100B000008BD70B504460425FFF7D6FF054605E08D
:100B1000FFF7EAFFFFF7D0FF0546641E012D01D164
:100B2000002CF5D104B90525284670BD70B50546E1
:100B3000042440F6FF70FFF7E4FF0446042C19D1AB
:100B4000C448006940F00200C24908610846456196
:100B5000006940F04000086140F6FF70FFF7D1FFE8
:100B60000446012C06D0BB48006941F6FD710840DF
:100B7000B8490861204670BD10B5042440F6FF70E6
:100B8000FFF7BFFF0446042C18D1B248006940F0BB
:100B90000400B04908610846006940F0400008615F
:100BA00040F6FF70FFF7ADFF0446012C06D0A948C0
:100BB000006941F6FB710840A6490861204610BD56
:100BC00010B5042440F6FF70FFF79BFF0446042C89
:100BD0003BD1A1489F498860A048886008460069C9
:100BE00040F0200008610846006940F040000861BC
:100BF00040F6FF70FFF785FF0446042C1CD1954892
:100C0000006941F6DF7108409249086108460069B1
:100C100040F010000861A520914908800F20FFF7DF
:100C200070FF0446012C10D08A48006941F6EF712C
:100C300008408849086108E0012C06D08548006911
:100C400041F6EF71084083490861204610BD70B538
:100C500005460E4604240F20FFF753FF0446042CDC
:100C600025D17C48006940F001007A4908612E8056
:100C70000F20FFF746FF0446042C0FD1300C68808C
:100C80000F20FFF73EFF0446012C10D07148006989
:100C900041F6FE7108406F49086108E0012C06D05A
:100CA0006C48006941F6FE7108406A4908612046B7
:100CB00070BD70B505460E4604240F20FFF721FFD6
:100CC0000446042C13D16348006940F001006149D7
:100CD00008612E800F20FFF714FF0446012C06D078
:100CE0005C48006941F6FE7108405A490861204697
:100CF00070BD70B505460E4604240F20FFF701FFB6
:100D00000446042C17D154485249886053488860DF
:100D10000846006940F0100008612E800F20FFF7A0
:100D2000F0FE0446012C06D04A48006941F6EF71F6
:100D3000084048490861204670BD2DE9F047044647
:100D40004FF6FF763746B046B1460425E443E6B297
:100D5000C4F30727C4F307484FEA14690F20FFF7CD
:100D6000D0FE0546042D40D13B483A4988603B48B7
:100D700088600846006940F010000861FF2E06D028
:100D80003748083006800F20FFF7BBFE0546042DCC
:100D900008D1FF2F06D032480A3007800F20FFF716
:100DA000B0FE0546042D0AD1B8F1FF0F07D02C483C
:100DB0000C30A0F800800F20FFF7A3FE0546042D9D
:100DC0000AD1B9F1FF0F07D025480E30A0F80090E6
:100DD0000F20FFF796FE0546012D06D01D4800693D
:100DE00041F6EF7108401B4908612846BDE8F087CD
:100DF00070B50546042440F6FF70FFF782FE0446F6
:100E0000042C4AD114481349886014488860084665
:100E1000006940F0200008610846006940F0400089
:100E2000086140F6FF70FFF76CFE0446042C2BD1DE
:100E30000848006941F6DF71084006490861084624
:100E4000006940F01000086165B100200449088085
:100E50000BE000000020024023016745AB89EFCD85
:100E600000F8FF1FA5204549088040F6FF70FFF7F6
:100E700048FE0446012C10D04148006941F6EF714C
:100E800008403F49086108E0012C06D03C48006951
:100E900041F6DF7108403A490861204670BD2DE9EE
:100EA000F04107460D46164604243648344988600A
:100EB000354888600F20FFF724FE0446042C1AD121
:100EC0002F48006940F010002D49086147EA0500ED
:100ED000304340F0F8002949891C08800F20FFF7B3
:100EE00010FE0446012C06D02548006941F6EF713A
:100EF0000840234908612046BDE8F0812048C069C8
:100F0000800870471E48006A704700201C49C96964
:100F100001F0020109B1012000E00020704700202B
:100F20001749096801F0200109B1012000E0002003
:100F3000704729B1124A12690243114B1A6104E049
:100F40000F4A126982430E4B1A6170470146002016
:100F5000012908D10A4AD26902F001020AB101202E
:100F600008E0002006E0064AD2680A400AB10120E3
:100F700000E0002070470249C860704700F8FF1F7A
:100F80000020024023016745AB89EFCD30B943F221
:100F9000DB028100A1F1C0410A6005E043F2D20208
:100FA0008100A1F1C0410A606FF07042411C8900CC
:100FB000A1F1C0410A608100A1F1C041C1F8042142
:100FC000704710280AD118214FF0204211664021A5
:100FD00051664FF0FC319166D16610E01821FB4A52
:100FE000116040214FF02042C2F884104FF0FC31D4
:100FF000F64A083211604FF02042C2F88C10704758
:101000001820F2492031086000200906C1F8A40028
:101010004FF0FC30ED4928310860091D0860091DBA
:1010200008607047D0E901121143C2681143026998
:1010300011434269114382691143C2691143026A33
:101040001143426A1143826A1143C26A1143026B1F
:10105000114302689200A2F1C04211608168082920
:101060000BD101688900A1F1C041096841F040023B
:1010700001688900A1F1C0410A60416B0968426BB7
:10108000526841EA0211426B926841EA0221426BC6
:10109000928941EA0241426B128A41EA0251426B53
:1010A000127D41EA0261426B926911430268521C4F
:1010B0009200A2F1C0421160816AB1F5804F1FD148
:1010C000816B0968826B526841EA0211826B9268F7
:1010D00041EA0221826B928941EA0241826B128AC3
:1010E00041EA0251826B127D41EA0261826B926990
:1010F000114302689200A2F1C042C2F8041107E055
:101100006FF0704201688900A1F1C041C1F804216B
:10111000704730B5002100220023446844F00804E1
:1011200085682C43C5682C4305692C4345692C43CD
:10113000856944EA4524C56944EA4531046A24685E
:10114000056A6D6844EA0524056A2D8944EA054468
:10115000056A2D7B44EA0562446A2468456A6D6825
:1011600044EA0524456A2D8944EA0544456A2D7BF5
:1011700044EA05630468102C05D14FF02044216631
:10118000A266E36608E0914C21604FF02044C4F869
:1011900088208E4C0C34236030BDD0E900121143FE
:1011A000826841EA4221C26841EA4231874A2032DC
:1011B0001160016909680269526841EA0221026905
:1011C000128941EA02410269127B41EA02617F4AC7
:1011D00028321160416909684269526841EA022176
:1011E0004269128941EA02414269127B41EA026185
:1011F000764A2C321160816909688269526841EA35
:1012000002218269128941EA02418269127B41EA24
:1012100002614FF02042C2F8B01070470021016017
:101220000221416000218160C160016141618161F1
:10123000C1614FF480510162490041620021816225
:10124000C16201630F21426B1160426B5160FF214B
:10125000426B91600F21426BD160426B1161426B16
:1012600051610021426B91610F21826B1160826B91
:101270005160FF21826B91600F21826BD160826B84
:101280001161826B51610021826B91617047102165
:101290000160002141608160C16001614161816143
:1012A000C161FC21026A1160026A5160026A9160A8
:1012B000026AD160426A1160426A5160426A91607A
:1012C000426AD16070470021016041608160C16065
:1012D000FC21026911600269516002699160026932
:1012E000D16042691160426951604269916042690E
:1012F000D1608269116082695160826991608269FE
:10130000D160704751B18200A2F1C042126842F030
:1013100001038200A2F1C042136009E08200A2F141
:10132000C04212682A4B1A408300A3F1C0431A60DE
:10133000704799B1102808D14FF02042126E42F048
:1013400004024FF020431A661DE0204A126842F062
:1013500004024FF02043C3F8802014E0102809D184
:101360004FF02042126E1A4BDB1E1A404FF0204302
:101370001A6608E0154A1268154BDB1E1A404FF03A
:101380002043C3F88020704748B1104920310968D4
:1013900041F004014FF02042C2F8A01009E00B49CF
:1013A000203109680A4AD21E11404FF02042C2F88B
:1013B000A0107047B9B110280CD14FF02042126E26
:1013C00042F040024FF020431A661FE0800000A068
:1013D000FEFF0F00724A126842F040024FF02043B5
:1013E000C3F8802012E0102808D14FF02042126E7E
:1013F0006C4B1A404FF020431A6607E0684A1268A7
:10140000684B1A404FF02043C3F8802070470146D4
:101410000020102903D14FF02042506F02E0604AB3
:1014200014321068704710B5F2B1102807D14FF090
:1014300020435B6E0B434FF02044636632E0B0F50F
:10144000807F08D1564B1B1D1B680B434FF0204477
:10145000C4F8843026E0524B24331B680B434FF012
:101460002044C4F8A4301DE0102807D14FF02043D9
:101470005B6E8B434FF02044636613E0B0F5807FD2
:1014800008D1474B1B1D1B688B434FF02044C4F809
:10149000843007E0424B24331B688B434FF02044D9
:1014A000C4F8A43010BD10B5024600200023102A55
:1014B00003D14FF02044636E09E0B2F5807F03D181
:1014C000374C241D236802E0354C2434236803EA9A
:1014D00001040CB1012000E0002010BD102807D14C
:1014E0004FF02042526E8A434FF020435A6613E079
:1014F000B0F5807F08D12A4A121D12688A434FF046
:101500002043C3F8842007E0254A243212688A4326
:101510004FF02043C3F8A420704770B50246002066
:10152000002300240025102A03D14FF02046736EBB
:1015300009E0B2F5807F03D1194E361D336802E011
:10154000174E2436336803EA010403EAD10514B1C7
:101550000DB1012000E0002070BD102808D14FF02F
:101560002042526E22EAD1024FF020435A6615E023
:10157000B0F5807F09D10A4A121D126822EAD10211
:101580004FF02043C3F8842008E0054A2432126853
:1015900022EAD1024FF02043C3F8A4207047000094
:1015A000800000A0BFFF0F0010B50446C549601AB7
:1015B0008C422FD009DCC448204480B1B0F5806F44
:1015C00016D0B0F5006F4AD11BE0B0F5806F2AD07D
:1015D000B0F5006F30D0B0F5406F40D135E001215B
:1015E000042000F0EDFC0021042000F0E9FC37E0CD
:1015F0000121082000F0E4FC0021082000F0E0FCBC
:101600002EE00121102000F0DBFC0021102000F072
:10161000D7FC25E00121202000F0D2FC0021202071
:1016200000F0CEFC1CE00121402000F0C9FC0021AC
:10163000402000F0C5FC13E00121802000F0C0FC38
:101640000021802000F0BCFC0AE00121080200F02B
:10165000B7FC00214FF4807000F0B2FC00E000BF46
:1016600000BF10BD10B50121084600F0A9FC002103
:10167000012000F0A5FC10BD2DE9F0410246002537
:101680000026002000230024002791F803C00CF05E
:101690000F0591F803C00CF0100CBCF1000F03D043
:1016A00091F802C04CEA050591F800C0BCF1000FAA
:1016B00030D0146800202AE04FF0010C0CFA00F33F
:1016C000B1F800C00CEA03069E421FD183004FF020
:1016D0000F0C0CFA03F7BC4305FA03FC4CEA0404B4
:1016E00091F803C0BCF1280F05D14FF0010C0CFAA2
:1016F00000FCC2F814C091F803C0BCF1480F05D13A
:101700004FF0010C0CFA00FCC2F810C0401C082875
:10171000D2D31460B1F800C0BCF1FF0F34DD5468BF
:1017200000202EE000F1080C4FF0010808FA0CF33D
:10173000B1F800C00CEA03069E4221D183004FF0AD
:101740000F0C0CFA03F7BC4305FA03FC4CEA040443
:1017500091F803C0BCF1280F05D100F1080C08FA7C
:101760000CF8C2F8148091F803C0BCF1480F07D1FF
:1017700000F1080C4FF0010808FA0CF8C2F81080CC
:10178000401C0828CED35460BDE8F0814FF6FF71AD
:101790000180022181700421C1707047024600203F
:1017A00093680B400BB1012000E000207047014618
:1017B000886880B2704702460020D3680B400BB1A6
:1017C000012000E0002070470146C86880B27047E1
:1017D00001617047416170470AB1016100E04161F8
:1017E0007047C16070474FF480320A438261816163
:1017F000826182698269704702460020334B186813
:101800004FF68073184040EA021008432F4B1860CF
:1018100070472F49C8617047F0B50A46002300247D
:1018200000210025294E7168C0F3034583B200F4FE
:101830004016B6F5401F08D121F07061234E76683E
:1018400026F07066214F7E6012E000F48016B6F537
:10185000801F06D1032606FA05F4A14341F070610A
:1018600006E0460D360103FA06F6B14341F0706119
:1018700022B1460D360103FA06F63143134E71606C
:10188000F0BD30B500228B071C0F0F2303FA04F2C2
:101890000E4B08338C1053F8243093430B4C083410
:1018A0008D1044F8253023468C1053F824308C07D3
:1018B000240F00FA04F42343044C08348D1044F838
:1018C000253030BD0014014000F8FEBF000001408B
:1018D000000020420020411EED4A11600A09EC4937
:1018E0008039C1F88420411E4FF0E022C2F88012F6
:1018F0000A09E8490A6000BF04E00022E64941F80D
:101900002020401C0F28F8D3704700204FF02061A2
:10191000E24A11600021121D1160E149121D11609F
:101920000021121D1160121D116000BF05E0002290
:10193000DA49143141F82020401C0328F7D3002154
:10194000D64A20321160491E121D1160121D11600D
:10195000121D11607047D2490143D04A083211600C
:101960007047F0B500210022002300250F24C6781F
:10197000002E35D0C94E0836366806F4E066C6F546
:10198000E066310AC1F10405CC40467806FA05F15B
:1019900086782640314309010678B607F60EB14035
:1019A000BD4E0778BF1056F827200678B607F70E09
:1019B000FF2606FA07F39A4319400A43B64E077802
:1019C000BF1046F82720067806F01F070126BE4004
:1019D00007787F11BF0007F1E027C7F800610BE02F
:1019E000067806F01F070126BE40A94F90F800C0F8
:1019F0004FEA6C1C47F82C60F0BD0021017041706B
:101A00008170C170704710B5FEF727FC10BD10B58E
:101A1000FEF721FC10BD10B5FEF724FC10BD10B57B
:101A2000FEF722FC10BD10B504462001FEF721FC94
:101A300010BD10B5FEF720FC10BD98480068C0F33B
:101A40000930704710B501460020002201F01F0444
:101A5000012303FA04F28E4B80334C1153F82430E7
:101A60001340934201D1012000E0002010BD8D49B8
:101A70000860704700F01F0201219140854A121F43
:101A8000431142F82310704784480068C0F30900EE
:101A9000704710B501460020002201F01F04012309
:101AA00003FA04F27B4B7C334C1153F8243013407F
:101AB000934201D1012000E0002010BD7748001FB3
:101AC00000687047784A0A400243744B1B1D1A6035
:101AD00070477348001D71490831086070477048AD
:101AE000401C6E4908310860704739B16B4A0C32AE
:101AF00012680243694B0C331A6006E0674A0C32E5
:101B000012688243654B0C331A60704710B500228F
:101B100000F01F04012303FA04F239B15F4B2033B4
:101B20001B6813435D4C2034236006E05B4B20337D
:101B30001B689343594C2034236010BDF0B5034615
:101B40000C4615460020FF2200260021534F08377F
:101B50003F6807F4E067C7F5E067390AC1F10400A0
:101B6000CA4004FA00F105EA02073943090103F00B
:101B7000C0008009C3F30122D700B9404FEAC20C6C
:101B8000FF2707FA0CF6454F143757F82070B74374
:101B9000DFF808C10CF1140C4CF82070674657F8B8
:101BA00020700F434CF82070F0BD10B502460020A5
:101BB00000230021910A01F00F01012404FA01F130
:101BC000364C2034246804EA01038B4201D1012001
:101BD00000E0002010BD002100F01F012F4A126814
:101BE00001238B401A432D4B1A60704710B500211A
:101BF00000F01F01294A12684B1E01249C40224319
:101C0000264B1A6010BD10B50246002000230021AB
:101C1000C2F38331012404FA01F1204C20342468FA
:101C200004EA01038B4201D1012000E0002010BD35
:101C300030B50146002000220023C1F38142C1F3E8
:101C400001531AB9154C2834206811E0012A0CD12F
:101C5000124C24342468DD0024FA05F0022B02D053
:101C600000F00F0004E0C0B202E00C4C2C342068FD
:101C700030BD014600200022C1F380521AB9074B43
:101C80003033186802E0054B3433186870470000A1
:101C900080E100E084E200E000E400E004ED00E028
:101CA0000000FA0500EF00E080FFFF1FE048006839
:101CB00040F00100DE49086008464068DD49084000
:101CC000DB49486008460068DB490840D84908609D
:101CD0000846006820F4802008600846406820F428
:101CE000FE004860002088607047D149096821F4EF
:101CF0008031CF4A11601146096821F480211160BA
:101D0000B0F5803F03D0B0F5802F0ED106E0C84972
:101D1000096841F48031C64A116007E0C449096886
:101D200041F4A021C24A116000E000BF00BF70472B
:101D300010B501460022002300204A11012A02D1D9
:101D4000BB4C236806E0022A02D1B94C236A01E0A9
:101D5000B74C636A01F01F02012494401C400CB18F
:101D6000012000E0002010BD10B5002400BF31208C
:101D7000FFF7DEFFB1490870B1480068401CB04968
:101D80000860AE48007828B90846006840F2FF11A4
:101D90008842ECD13120FFF7CBFF08B1012400E0ED
:101DA0000024204610BD01460020A14A106820F002
:101DB000F80040EAC10010607047A249086070470F
:101DC000024600209A4B586820F47C1042EA010336
:101DD0001843974B586070479A4908667047014608
:101DE0000020934A506820F0030008435060704779
:101DF0008F48406800F00C007047014600208C4A74
:101E0000506820F0F0000843506070470146002001
:101E1000874A506820F4E0600843506070470146EC
:101E20000020834A506820F4605040EAC1005060AE
:101E3000704729B17E4A527A02437D4B5A7204E0C0
:101E40007B4A527A82437A4B5A7270477D49D83125
:101E50000860704701460020754A506820F44040F1
:101E60000843506070470021714A20321170704A57
:101E700082F82010012802D004280AD104E00121B0
:101E80006B4A2032117005E00521694A2032117039
:101E900000E000BF00BF70476B49086070476449AD
:101EA000096A0143624A1162704767494439086010
:101EB000704730B500210022002400235C4D6D687E
:101EC00005F00C0121B1042905D0082923D105E032
:101ED0005E4D056022E05D4D05601FE0544D6D686C
:101EE00005F47012022505EB9242514D6D6805F420
:101EF00080341CB9564D554305600BE04C4D6D6860
:101F000005F400351DB1524D5543056002E04F4DBB
:101F10005543056002E04D4D056000BF00BF444DD4
:101F20006D6805F0F00109094A4D6B5C0568DD40FC
:101F300045603F4D6D6805F4E061090A454D6B5CF5
:101F40004568DD4085603A4D6D6805F46051C90A09
:101F5000404D6B5C4568DD40C560354D6D6805F4EE
:101F60004041890B3C4D6B5CC568B5FBF3F50561E1
:101F700030BD29B12E4A526902432D4B5A6104E00B
:101F80002B4A526982432A4B5A61704729B1284A29
:101F900092690243264B9A6104E0254A9269824382
:101FA000234B9A61704729B1214AD2690243204BE1
:101FB000DA6104E01E4AD26982431D4BDA61704740
:101FC00029B11B4AD2680243194BDA6004E0184A6F
:101FD000D2688243164BDA60704729B1144A1269FD
:101FE0000243134B1A6104E0114A12698243104BF9
:101FF0001A61704714494039086070471149C86434
:1020000070470B49C87170470948406A40F08070BA
:1020100007494862704701460020054A92680A4015
:102020000AB1012000E00020704701498872704722
:10203000001002400000FFF8FFFFF6FE0000002045
:1020400004000020000042428004424200127A0054
:1020500000093D00F67B0008067C000810B5044628
:10206000F749601A8C4245D00CDCB4F1804F1DD08A
:10207000F448204418B3B0F5806F29D0B0F5006F54
:1020800054D12EE0B0F5806F3DD0B0F58E3F03D037
:10209000B0F5923F4AD13FE00121C802FFF790FF1F
:1020A00000214FF40060FFF78BFF40E0012108465C
:1020B000FFF793FF00210120FFF78FFF37E0012199
:1020C0000220FFF78AFF00210220FFF786FF2EE0A3
:1020D00001210420FFF781FF00210420FFF77DFF8D
:1020E00025E001210820FFF778FF00210820FFF7F5
:1020F00074FF1CE001211020FFF76FFF002110206A
:10210000FFF76BFF13E001212020FFF766FF00219E
:102110002020FFF762FF0AE001214803FFF750FF8C
:1021200000214FF40050FFF74BFF00E000BF00BF5D
:1021300010BD028802F08F020280CA884B881A43C1
:1021400003881A4302808A8882850A8802850122D0
:102150008282BD4A904202D0BC4A904201D10A7AA2
:102160000286704770B5002400220023058C4FF6CC
:10217000FE7635400584028C8388048B4FF68F757C
:102180002C400D882C43751E2A400D892A434D880A
:102190002A43CD888586AC4DA84202D0AB4DA842DB
:1021A00013D14FF6F7752A404D892A434FF6FB7538
:1021B0002A408D882A4347F6FF652B4047F6FF5596
:1021C0002B408D892B43CD892B438380048302844C
:1021D00070BD70B5002400220023058C4FF6EF7609
:1021E00035400584028C8388048B48F6FF752C40AB
:1021F0000D884FF6FF7606EA05252C434FF6DF756E
:102200002A400D8906EA05152A434D8806EA051578
:102210002A43CD8805878C4DA84202D08B4DA84219
:102220001DD14FF67F752A404D894FF6FF7606EA9D
:1022300005152A434FF6BF752A408D8806EA051515
:102240002A4347F6FF352B4047F2FF752B408D8917
:1022500006EA85052B43CD8906EA85052B43838055
:102260000483028470BD70B5002400220023058C15
:102270004FF6FF6635400584028C8388848B4FF6C9
:102280008F752C400D882C434FF6FF552A400D8941
:102290004FF6FF7606EA05252A434D8806EA05250E
:1022A0002A43CD888587684DA84202D0674DA84251
:1022B0001DD14FF2FF752A404D894FF6FF7606EA91
:1022C00005252A434FF6FF352A408D8806EA052565
:1022D0002A4346F6FF752B4045F6FF752B408D8946
:1022E00006EA05152B43CD8906EA05152B438380A5
:1022F0008483028470BD70B5002400220023058C05
:102300004EF6FF7635400584028C8388848B48F630
:10231000FF752C400D884FF6FF7606EA05252C4305
:102320004DF6FF752A400D8906EA05352A434D888A
:1023300006EA05352A43CD88A0F84050424DA84210
:1023400002D0424DA84207D1C3F30D038D894FF649
:10235000FF7606EA85152B4383808483028470BD53
:10236000828B4FF2FF331A408283828B4FF6FF73CA
:1023700003EA01231A4382837047F0B50C461546E1
:10238000002100220026078C4EF6FF7C07EA0C078E
:102390000784818B028C4FF6FF7707EA043640F6FC
:1023A000FF4739404FF6FF7707EA05274FF6FF7CD6
:1023B0000CEA033C47EA0C0739434DF6FF773A40F5
:1023C00046F480573A4381830284F0BD828B4FF6F6
:1023D000F3731A408283828B0A4382837047F0B57D
:1023E0000C461546002100220026078C4FF6FF6C94
:1023F00007EA0C070784818B028C4FF6FF7707EA08
:1024000004264FF60C7739404FF6FF7707EA03179B
:102410002F4339434FF6FF573A4046F480773A430B
:1024200081830284F0BD028B4FF2FF331A40028396
:10243000028B4FF6FF7303EA01231A4302837047AE
:102440000010004000FCFFBF002C014000340140A0
:10245000F0B50C461546002100220026078C4FF6E9
:10246000EF7C07EA0C070784018B028C4FF6FF779D
:1024700007EA041640F6FF4739404FF6FF7707EAB0
:10248000033739434FF6FF7707EA052739434FF6FD
:10249000DF773A4046F010073A4301830284F0BDEB
:1024A000028B4FF6F3731A400283028B0A430283B6
:1024B0007047F0B50C46154600210022068C4FF6F9
:1024C000FE773E400684018B028C4FF60C7631403D
:1024D0007E1C06EA03162E4331437E1E324044F032
:1024E0000106324301830284F0BD70B505460C46F7
:1024F000208850B92389A28861882846FFF7D9FF30
:10250000E1882846FFF7CCFF25E0208804280AD17F
:102510002389A28861882846FFF79AFFE188284628
:10252000FFF781FF17E0208808280AD12389A288B5
:1025300061882846FFF753FFE1882846FFF746FFEA
:1025400009E02389A28861882846FFF716FFE18801
:102550002846FFF705FF70BD2DE9F04105460C4602
:1025600000260127608808B9022600E00026A0881E
:10257000012801D1022700E001272088A0B9238982
:10258000A28861882846FFF794FFE1882846FFF774
:1025900087FF23893A4631462846FFF759FFE188ED
:1025A0002846FFF740FF13E02389A2886188284668
:1025B000FFF74EFFE1882846FFF735FF23893A46AB
:1025C00031462846FFF775FFE1882846FFF768FF88
:1025D000BDE8F0810A884B881A438B881A43CB8860
:1025E0001A430B891A434B891A438B891A43A0F863
:1025F000442070474FF6FF71818000210180C18027
:102600004180017270470021018041808180C1803A
:10261000018141818181C181704700210180418018
:10262000012181800021C18001817047002101804A
:1026300041808180C180018141818181704721B1C8
:10264000028842F00102028004E0028840F2FE3378
:102650001A400280704731B1B0F8442042F4004281
:10266000A0F8442005E0B0F84420C2F30E02A0F820
:10267000442070471AB183890B43838102E0838928
:102680008B43838170478182704741EA0203A0F83F
:10269000483070471AB183890B43838102E08389F4
:1026A0008B438381704701894FF6F8721140018195
:1026B00070470A46002101894FF68F731940114374
:1026C0000181704730B504460D4629462046FFF784
:1026D000F0FF208940F00700208130BD2DE9F04156
:1026E00004460D4616461F46602D06D13B46012284
:1026F00031462046FFF7ACFE05E03B46012231465D
:102700002046FFF7D6FE29462046FFF7D2FF208954
:1027100040F007002081BDE8F08170B50C46002133
:102720000189C9B244EA02054FF6FF7606EA03269C
:1027300035432943018170BD2DE9F04105460E4620
:1027400017469846002443463A4631462846FFF746
:10275000E4FF2C894FF6F870044044F007044FF66C
:102760008F70044044F070042C81BDE8F081F0B516
:1027700004460D4616461F463B463246294620462D
:10278000FFF7CBFF208940F480402081F0BD018518
:10279000828270470A460021018840F28F33194037
:1027A000114301807047F0B50C4615461E460021C6
:1027B000002200230189028B038C4FF6F877394001
:1027C00021434FF6FC473A4040F201173A434FF697
:1027D000DD773B404FF6FF7707EA06172F433B4371
:1027E000018102830384F0BD0A460021018B4FF66C
:1027F0008F7319401143018370470A460021018BF2
:1028000048F6FF7319404FF6FF7303EA022319439A
:10281000018370470A460021818B4FF68F73194060
:102820001143818370470A460021818B48F6FF736C
:1028300019404FF6FF7303EA02231943818370475F
:1028400021B1028842F08002028004E0028840F256
:102850007F331A400280704721B1828842F004021F
:10286000828004E082884FF6FB731A4082807047B2
:1028700021B1828842F00802828004E082884FF60B
:10288000F7731A408280704721B1828842F00102BA
:10289000828004E082884FF6FE731A40828070477F
:1028A0000A460021018B4FF6F7731940114301834B
:1028B00070470A460021018B4FF2FF7319404FF613
:1028C000FF7303EA02231943018370470A4600217C
:1028D000818B4FF6F77319401143818370470A4685
:1028E0000021818B4FF2FF7319404FF6FF7303EA0B
:1028F00002231943818370470A460021018B4FF65A
:10290000FB7319401143018370470A460021018B74
:102910004FF6FF3319404FF6FF7303EA02231943C2
:10292000018370470A460021818B4FF6FB731940E3
:102930001143818370470A460021818B4FF6FF3394
:1029400019404FF6FF7303EA02231943818370474E
:102950000A460021018B4FF67F7319401143018312
:1029600070470A460021018BC1F30E014FF6FF7339
:1029700003EA02231943018370470A460021818B31
:102980004FF67F7319401143818370470A46002137
:10299000818BC1F30E014FF6FF7303EA0223194343
:1029A000818370470A460021018C4FF6FD73194060
:1029B0001143018470470A460021018C4FF6F773DA
:1029C00019401143018470470A460021018C4FF6DB
:1029D000DF7319404FF6FF7303EA021319430184B2
:1029E00070470A460021018C4FF67F7319404FF65D
:1029F000FF7303EA02131943018470470A4600215A
:102A0000018C4FF6FF5319404FF6FF7303EA022380
:102A10001943018470470A460021018C4FF2FF736D
:102A200019404FF6FF7303EA0223194301847047EC
:102A30000A460021018C4DF6FF7319404FF6FF73D3
:102A400003EA023319430184704710B5038C012453
:102A50008C40A3430384038C02FA01F4A4B2234301
:102A6000038410BD10B5038C04248C40A34303845D
:102A7000038C02FA01F4A4B22343038410BD30B5E1
:102A8000038C01248C40A343038409B1082912D18B
:102A900000F1180303EB61031B684FF68F742340AA
:102AA00000F1180404EB6104236000F1180303EB48
:102AB00061031A6018E00B1FC3F34E0400F1180302
:102AC0001B5948F6FF7423400C1FC4F34E0500F158
:102AD000180463514FF6FF7303EA02240B1FC3F37C
:102AE0004E0500F118035C5130BD21B1028842F05F
:102AF0000202028004E0028840F2FD331A400280A4
:102B0000704721B1028842F00402028004E002888A
:102B100040F2FB331A400280704721B1828842F0B4
:102B20008002828004E082884FF67F731A408280A0
:102B30007047028840F2F7331A40028002880A4345
:102B40000280704782884FF68F731A408280828895
:102B50000A438280704702894FF6F8731A40028157
:102B600002890A430281704702894FF67F731A4037
:102B7000028102890A4302817047818470478185FE
:102B80007047818670470187704781877047A0F83A
:102B9000401070470288D2B2028002880A43028045
:102BA00070470146888E70470146088F704701467E
:102BB000888F70470146B1F8400070470146888C05
:102BC00070470146088D704702460020138A0B406B
:102BD0000BB1012000E000207047CA430282704719
:102BE00030B50246002000230024158A05EA0103BF
:102BF000958905EA010413B10CB1012000E0002021
:102C000030BDCA43028270474FF0E02000694FF6A2
:102C1000FB7108404FF0E0210861564800685649B2
:102C2000B0FBF1F0C0F3C7005449087008460078C3
:102C30004FF47A7148435249086070473EB5FFF738
:102C400035F84FF48030FFF750F8FFF78DF8044661
:102C5000012C28D11020FDF717FF0220FDF7FEFE02
:102C60000020FFF7CAF80020FFF7D9F8A002FFF70D
:102C7000CDF84FF440112004FFF7A2F80120FFF730
:102C8000ABF800BF3920FFF753F80028FAD0022034
:102C9000FFF7A5F800BFFFF7ABF80828FBD13948CC
:102CA0003449086002E0384832490860FFF7ACFF59
:102CB00001210846FFF76AF901212020FFF773F987
:102CC0006320ADF804002B4800683049B0FBF1F0F8
:102CD000401E80B2ADF800000020ADF80600ADF84F
:102CE000020069462A48FFF724FA01212848FFF725
:102CF000A7FD01212648FFF7A2FC3EBD014613E0D7
:102D00001F4A12684FF0E0235A6100229A610122A3
:102D10001A6100BF4FF0E022106900F001021AB101
:102D200000F48032002AF5D00A00A1F10101E7D1B8
:102D30004FF0E0231A619A61704701460F4A1278FA
:102D40004A434FF0E0235A6100229A6101221A613E
:102D500000BF4FF0E022106900F001021AB100F448
:102D60008032002AF5D000224FF0E0231A619A61E8
:102D7000704700001000002040420F0008000020B3
:102D80000C00002000FCAC0600127A00A0860100B6
:102D90000014004008B50121D020FFF7F7F8022009
:102DA0008DF8020004208DF80300C002ADF8000089
:102DB00069460E48FEF760FC7F20ADF800006946CA
:102DC0000B48FEF759FCFF200A49086001208DF8E6
:102DD000020010208DF80300FF20ADF800006946C6
:102DE00004481438FEF748FC08BD000000100140FC
:102DF00000180140141C014070B50446EF2340F256
:102E00003F120021084602F02BFF22204FF0D8414C
:102E100008804FF4963501E0FC4804802800A5F1B5
:102E20000105F9D170BD2DE9F04704460D4616465F
:102E30001F46DDF820A0B44201DCBD4201DDBDE843
:102E4000F0873B4632462946204602F009FF222001
:102E50004FF0D8410880A0460FE0A94606E0EB48B5
:102E6000A0F800A009F101001FFA80F9781C814543
:102E7000F5DB08F101001FFA80F8701C8045ECDBDF
:102E8000EF2340F23F120021084602F0E9FE00BFA6
:102E9000D5E72DE9F05F04460D4616461F46DDF8DE
:102EA0002890B44201DCBD4201DDBDE8F09F3B4605
:102EB00032462946204602F0D3FE22204FF0D84168
:102EC0000880A04611E0AA4608E0D048B0F800B05B
:102ED00029F802BB0AF101001FFA80FA781C82452A
:102EE000F3DB08F101001FFA80F8701C8045EADB73
:102EF000EF2340F23F120021084602F0B1FE00BF6E
:102F0000D3E770B505460E4614463146284602F012
:102F100099FE22204FF0D8410880BC48048070BD43
:102F2000BB490880704708B501210802FFF721F866
:102F300001214FF4F870FFF729F84CF23370ADF827
:102F4000000003208DF8020018208DF80300694668
:102F5000B048FEF791FB4FF68070ADF8000069466F
:102F6000AD48FEF789FB4FF40060ADF80000182073
:102F70008DF803006946A748FEF77EFB4FF48050AA
:102F8000ADF8000018208DF803006946A348FEF74D
:102F900073FB08BD00B597B002200190029003209A
:102FA000039000200490059006900790062008905A
:102FB000002009900A9010200B9000200C900D909A
:102FC0000E900F904FF480501090002011901290AE
:102FD000149001A81590169008A8FEF723F8012177
:102FE0000620FEF78FF917B000BD00B589B00021AB
:102FF00087484038FFF723FB01210420FEF7D3FF69
:1030000001210920FEF7C2FF4FF400718448FEF74A
:10301000E1FB4FF40070ADF8040003208DF80600CA
:1030200018208DF8070001A97D48FEF725FB6020D8
:10303000ADF814000120ADF816000020ADF81A001C
:10304000ADF81C0005A972484038FFF754F9082173
:103050006F484038FFF743FC6320ADF80C0040F2A6
:10306000CF20ADF808000020ADF80E00ADF80A0042
:1030700002A967484038FFF75CF8012164484038EE
:10308000FFF7DDFA0020FFF74BFF09B000BD70B578
:1030900004460B461AB3634D2D6885B1614D2D680A
:1030A000614E368803FB0651002003E00D5C255479
:1030B000451CA8B25C4D2D88A842F7DB20E05B4D93
:1030C000594E368803FB0651002003E00D5C255461
:1030D000451CA8B2544D2D88A842F7DB10E0203BD8
:1030E000534D2D68534E368803FB0651002003E0F4
:1030F0000D5C2554451CA8B24E4D2D88A842F7DB27
:1031000070BD4B4B02681A60464B42681A60027AE7
:10311000494B1A70427A494B1A70474A1278D110BB
:10312000454A127802F007020AB14A1CD1B2434A5A
:1031300012784A433F4B1A801A461288B2F5107F24
:1031400002DD4FF410721A803B4A127891103A4A0D
:10315000127802F003020AB14A1CD1B2374A12783F
:103160004A43314B1A801A461288B2F5906F02DD3D
:103170004FF490621A8070472DE9F04FADF28C4DFC
:1031800004460D4616469946202E04DA30460DF2C6
:103190008C4DBDE8F08F2746CDF884543C46264838
:1031A000007838441FFA80FA24480078DDF8845407
:1031B000284480B2CDF88804002231466846FFF7E3
:1031C00066FFE8464EE04FF0000B3C4646E0BBF1A0
:1031D000000F06D118F8010BCDF880044FF0070B53
:1031E00009E0ABF1010000F0FF0BDDF880044006C0
:1031F000000ECDF88004DDF8800400F08000F8B106
:103200004A4629462046FFF77CFE25E00000026C76
:103210004008004000140140001801400020014017
:10322000000C014018000020200000200D9A00082A
:10323000140000201E0000201C0000201D000020A3
:10324000DDF8B004B0F5803F06D2DDF8B00482B2FC
:1032500029462046FFF755FE601C84B25445B6DB74
:10326000681C85B2DDF888048542ACDBFF208EE760
:103270002DE9F04FADF2944D04460D4616461F461B
:10328000DDF8BCB4FB480068A8B1A12E01DBA12F7A
:1032900004DA01200DF2944DBDE8F08FA7F1A100F2
:1032A000A6F1A101C1EB011202EB411100EB4100BB
:1032B0001FFA80F901E006F07F09A2460095544606
:1032C000ED4800780AEB400080B20290EB480078AD
:1032D000009D284480B201900122494605A8FFF7CD
:1032E000D6FE0DF114082EE000200490544625E08F
:1032F000049828B918F8010B03900720049007E000
:103300000498401EC0B2049003984006000E03903B
:10331000039800F0800030B129462046DDF8B8243B
:10332000FFF7EFFD08E0BBF5803F05D21FFA8BF2F7
:1033300029462046FFF7E5FD601C84B202988442CE
:10334000D6DB681C85B201988542CDDB0020A1E761
:103350002DE9FF4F87B0814616469A46149C4D468C
:10336000DDF82080C44807784FEA470BC34801784E
:10337000159808440690207890B92078802804DBBE
:10338000701CA0EB0B00A84206DB2078802807DA2F
:10339000701CC01BA84203DA01200BB0BDE8F08FFF
:1033A0000595CDF8108062E0207880282ADB701C1B
:1033B000A0EB0B00A8420DDA069840441FFA80F8F3
:1033C0000AF10100AD490978401A404501DA0120AF
:1033D000E3E74D462078039060780290DDE916011E
:1033E000CDE9000141462846DDE90232FFF740FF02
:1033F000A048006808B1A41C00E0641C05EB0B00A9
:1034000085B234E0701CC01BA8420DDA0698404417
:103410001FFA80F80AF1010098490978401A4045DE
:1034200001DA0120B9E74D4620780D2806D135464E
:10343000641C20780A281AD1641C18E020780A2815
:1034400002D13546641C12E02078092804D105EB2E
:10345000870085B2641C0AE01798009022784146E4
:103460002846169BFFF788FE641CE81985B2207871
:10347000002899D100BF90E72DE9FE4F82468B4688
:1034800091469846C34511D1CA4501DC544601E036
:103490004C46D14606E0594620460C9AFFF731FDCE
:1034A000601C84B24C45F6DDBDE8FE8FC34503DDEC
:1034B000ABEB080087B202E0A8EB0B0087B2CA456D
:1034C00010D1C34501DC5D4601E04546D84606E023
:1034D000294650460C9AFFF714FD681C85B24545F5
:1034E000F6DDE1E7CA4507DDAAEB090086B24C46E6
:1034F000D1464546D84604E0A9EB0A0086B25446B8
:103500005D46BE4211D10DE0601C84B2454502DD2E
:10351000681E85B201E0681C85B2294620460C9AD7
:10352000FFF7EFFC4C45EFDDA2E0294620460C9A60
:10353000FFF7E7FC45454DDABE4225DDC6EB470007
:1035400000B20290780000B20190B81B400000B2B7
:10355000009016E0601C84B20298002805DADDE9CC
:103560000110084400B2029006E0681C85B2009980
:103570000298084400B20290294620460C9AFFF7B0
:10358000C0FC4C45E6DB73E0C7EB460000B202909E
:10359000700000B20190F01B400000B2009016E0F5
:1035A000681C85B20298002805DADDE9011008449C
:1035B00000B2029006E0601C84B2009902980844B0
:1035C00000B20290294620460C9AFFF79AFC454526
:1035D000E6DB4DE0BE4225DDC6EB470000B20290BF
:1035E000780000B20190B81B400000B2009016E0D5
:1035F000601C84B20298002805DADDE90110084455
:1036000000B2029006E0681E85B200990298084454
:1036100000B20290294620460C9AFFF772FC4C45F6
:10362000E6DB25E0C7EB460000B20290700000B276
:103630000190F01B400000B2009016E0681E85B2B9
:103640000298002805DADDE90110084400B2029072
:1036500006E0601C84B200990298084400B202900F
:10366000294620460C9AFFF74CFCA845E6DB00BF34
:1036700000BF19E7180000201C0000201D000020DA
:103680002DE9F04103460E46154600220024002194
:103690008C46002736B93020187000205870012061
:1036A000BDE8F081002E04DA2D2018705B1C012784
:1036B0007642344604E00A20B4FBF0F4501CC2B257
:1036C000002CF8D13446AA4232DC302018702E206B
:1036D0005870002106E04FF03008881C03F8008085
:1036E000481CC1B2A81A8842F5DC944613E00A20AF
:1036F000B4FBF0F800FB1840303001F10208E04460
:10370000A8F1010803F808000A20B4FBF0F4ACF1BA
:10371000010000F0FF0CBCF1000FE8DC4FF00008E6
:10372000A81C384403F80080A81C3844C0B2B7E78E
:10373000CDB3501CC1B22AE0501C401AA8420DDA89
:103740000A20B4FBF0F800FB18403030A1F101086A
:1037500003F808000A20B4FBF0F416E0501C401AED
:10376000A84205D14FF02E08481E03F800800CE057
:103770000A20B4FBF0F800FB18403030A1F101083A
:1037800003F808000A20B4FBF0F4481EC1B2002977
:10379000D2DC4FF00008501C384403F80080501C65
:1037A0003844C0B27CE7FFE711460EE00A20B4FBC4
:1037B000F0F800FB18403030A1F1010803F80800D0
:1037C0000A20B4FBF0F4481EC1B20029EEDC002050
:1037D00002EB070803F80800D019C0B260E72DE932
:1037E000FF4F8BB08346DDF86890B9F1000F03D12D
:1037F00001200FB0BDE8F08FB9F8020001B20991C5
:10380000B9F8040000B208900D98A0EB0B00401C22
:1038100000B207900C990E98401A401C00B2069016
:1038200009990798884203DB08990698884201DACB
:103830000220DEE7189820B90FFA8BFA0C9805B22F
:1038400014E01898012811D109990798401A4010DE
:103850000490049858440FFA80FA08990698401A80
:103860004010049004990C98084405B209985044FB
:10387000401E0FFA80FCCDF814C008982844401E62
:1038800006B2B3B2DDF814C01FFA8CF2A9B21FFA67
:103890008AF002F0E5F922204FF0D841088009F1C2
:1038A00008094C4620880390A41C20680090DDE99C
:1038B000081000FB01F840F201510398884203D040
:1038C000491C039888423DD10098801DB0EB880FB9
:1038D00038D2241D0027002002902FE037B17F1E30
:1038E0000A9828B334F8020B019021E0277807F0FA
:1038F0007F007F280DD107F0800010B100200A90D2
:1039000001E001200A90641C208800F17F07A41CBC
:103910000AE007F0800010B100200A9001E00120C9
:103920000A90641C07F07F077F1E34F8020B019099
:103930004C49019808800298401C0290029840452A
:10394000CCD30DE0A41E0020029006E034F8020B58
:10395000444908800298401C029002984045F5D3E3
:103960001998002874D00C98854218DD681E83B21F
:103970005846DDE90C1202F073F922204FF0D841CD
:1039800008800C98281A079900FB01F802E03549D5
:10399000199808805FEA0800A8F10108F7D1DA4514
:1039A0001ADDB3B2AAF1010082B2A9B2584602F000
:1039B00057F922204FF0D8410880AAEB0B00711B69
:1039C000491C00FB01F802E02649199808805FEACB
:1039D0000800A8F10108F7D10D99059888421BDA73
:1039E000B3B2A9B2059A521C90B20D9A02F038F9FE
:1039F00022204FF0D841088005990D98401A711B7C
:103A0000491C00FB01F802E01649199808805FEA9A
:103A10000800A8F10108F7D10E98864218DA701C48
:103A200081B25846DDE90D2302F01AF922204FF049
:103A3000D84108800E98801B079900FB01F802E02E
:103A40000849199808805FEA0800A8F10108F7D131
:103A5000EF2340F23F120021084602F001F9002056
:103A6000C7E600000000026C7FB504460D46012148
:103A70000820FEF798FAADF804500020ADF80600D3
:103A8000ADF80840ADF80A008DF80C0001A96D48AA
:103A9000FEF74FFB01216B48FFF79FF8012211460B
:103AA0006848FEF7E7FD32208DF8000000208DF811
:103AB00001008DF8020001208DF803006846FDF733
:103AC00050FF01215F48FEF7BAFD7FBD00B58DB004
:103AD000012142F21400FEF759FA8020ADF83000BF
:103AE00018208DF8330003208DF832000CA95648B9
:103AF000FDF7C2FD4020ADF830000CA95348FDF79A
:103B0000BBFD5348FEF7AAFA4FF40C60ADF828004D
:103B10000020ADF82400ADF82A00ADF826008DF89D
:103B20002C0009A94A48FEF704FB6020ADF81400F8
:103B30000120ADF816000420ADF818000020ADF803
:103B40001A00ADF81C00ADF81E00ADF82000ADF86D
:103B5000220005A93E48FEF705FB05A93C48FEF7F3
:103B600038FB05A93A48FEF77EFB08213848FEF7E6
:103B700097FE08213648FEF79CFE08213448FEF7E0
:103B8000A5FE4FF40060ADF804004010ADF806004B
:103B90000020ADF808001A20ADF80A000020ADF8AA
:103BA0000C00ADF80E00ADF8100001A92848FEF792
:103BB00011FD01212648FEF742FD01212448FEF7B0
:103BC00063FE01212248FEF746FD0DB000BD10B591
:103BD00001460246002902DC0021002205E0B2F580
:103BE0000C6F02DB4FF40C6211464FF08044A1864B
:103BF000228710BD10B501460246002902DC0021D3
:103C0000002205E0B2F50C6F02DB4FF40C621146A6
:103C10004FF08044A1870F4C228010BD10B50146A3
:103C20000246002902DC0021002205E0B2F50C6FFB
:103C300002DB4FF40C621146074C2180241D2280C8
:103C400010BD0000000C00400008014000100140C1
:103C500000340140400000403408004000B591B0FD
:103C600001214FF4C060FEF791F94FF44040FEF798
:103C7000F1F801211020FEF789F901210846FEF72D
:103C800078F91720ADF82C0002208DF82E000020C6
:103C90008DF82F000BA93E48FDF7EEFC3D48FCF7E0
:103CA0001DFD3D4800903D480190002002900420F9
:103CB0000390002004908020059040000690800032
:103CC0000790202008900002099000200A90694681
:103CD0003048FCF79CFD01212E48FCF7C3FD002075
:103CE0000C9001208DF8340000208DF835004FF441
:103CF00060200E9000200F9004208DF840000CA949
:103D000025484C38FCF7FFFA01231A460A212248BD
:103D10004C38FCF790FB012302220B211E484C3843
:103D2000FCF789FB012303220C211B484C38FCF7CC
:103D300082FB012304220E2117484C38FCF77BFB41
:103D4000012115484C38FCF715FB012112484C386D
:103D5000FCF705FB10484C38FCF723FB00BF0E486E
:103D60004C38FCF723FB0028F9D10B484C38FCF702
:103D700027FB00BF08484C38FCF727FB0028F9D187
:103D8000012105484C38FCF72AFB11B000BD0000AA
:103D900000100140080002404C2401402200002095
:103DA00000B587B001211020FEF7F0F801211020A6
:103DB000FEF7F9F84FF48050ADF8180001208DF8A7
:103DC0001A0004208DF81B0006A9EF48FDF754FCEB
:103DD0004FF48050049000208DF8140008208DF8D6
:103DE000150001208DF8160004A8FCF7A5FD0C2194
:103DF0000220FDF746FD4FF4C060FDF7ACFD282022
:103E00008DF80C0002208DF80D0000208DF80E00BA
:103E100001208DF80F0003A8FDF7A3FD40F2DB5051
:103E2000ADF80400D948006842F21071B0FBF1F01F
:103E3000401E80B2ADF800000020ADF80600ADF8DD
:103E400002006946D248FEF774F90121D048FEF716
:103E5000F7FC0121CE48FEF7F2FB07B000BDCC49CC
:103E6000888C098A01F0010149B1FF21C94A11700A
:103E70000021C94A11708021C84A11607AE10028E6
:103E800001DB072807DD0E2801DB112803DD2A28C6
:103E900002DB2D2800DC7047B0F5487F0CDBBE4903
:103EA0000978BF4A11700021BE4A1170B94A1170D9
:103EB0008021BA4A11605DE12E280CDB37280ADC2C
:103EC0000021B84A11700121B24A11708021B34A11
:103ED000121F11604EE1AF4909780129CED1B149D5
:103EE0000978082925DAB04909784910AE4A1170D5
:103EF000092807DB0D2805DCAA490978491CA94ACD
:103F0000117012E014280DDB18280BDCA649097883
:103F100041F08001A44A1170A2490978491CA14AC4
:103F2000117002E0FF219B4A117080219B4A1160B1
:103F30007EE09C490978102926DA9C4909784910C5
:103F40009A4A1170092807DB0D2805DC9549097884
:103F5000491C944A117012E014280DDB18280BDC60
:103F60009249097841F08001904A11708D49097891
:103F7000491C8C4A117002E0FF21864A1170802191
:103F8000864A121F116053E086490978182925DAFC
:103F9000874909784910864A1170092807DB0D28DE
:103FA00005DC80490978491C7E4A117012E014280A
:103FB0000DDB18280BDC7E49097841F080017C4A32
:103FC000117078490978491C764A117002E0FF2186
:103FD000704A11708021714A116029E07149097895
:103FE000202925DA734909784910724A1170092885
:103FF00007DB0D2805DC6B490978491C694A1170FB
:1040000012E014280DDB18280BDC6A49097841F00E
:104010008001684A117063490978491C614A11702E
:1040200002E0FF215B4A117080215C4A121F11607F
:104030005C49097820296FDB0021564A11708021E4
:10404000564A116058490978584A12781144FF2994
:1040500062D157490978574A12781144FF295BD138
:104060005349097840293BD015DC152944D009DC97
:10407000A1F10701072978D2DFE801F03A5F427722
:1040800077534F0016293FD018294ED019293FD019
:104090001C296AD155E047291AD008DCA1F1420158
:1040A000052962D2DFE801F05520180C10004A29DA
:1040B00057D0522951D05A2947D05E2955D138E0DE
:1040C0000121374A117050E00221354A11704CE04D
:1040D0000321334A117048E00421314A117044E051
:1040E00005212F4A117040E006212D4A11703CE055
:1040F00007212B4A117038E00821294A117034E059
:104100000921274A117030E00A21254A11702CE05C
:104110000B21234A117028E02CE00C21204A117059
:1041200023E00D211E4A11701FE00E211C4A117060
:104130001BE00F211A4A117017E01021184A117064
:1041400013E01121164A11700FE01221144A117068
:104150000BE01321124A117007E01421104A11706C
:1041600003E015210E4A117000BF00BF0C49097809
:10417000094A11700021064A9184012191824FF66B
:10418000FE71118200BF86E6001001401000002081
:1041900000100040300000202B000020141C0140C3
:1041A0002A000020310000202C0000202D000020DB
:1041B0002E0000202F00002070B5F7490968F74A4B
:1041C000126801FB02F003F0CBFA06463146F448D0
:1041D00003F0C8F905464FF07E5103F01FFC04467A
:1041E00003F09EFAEF49086008460088EE4908800F
:1041F00070BD0020ED490860ED490860ED48006899
:1042000010B10020EC490860EC4800684FF47A7166
:104210004843EB49096890FBF1F0EA4908607047B0
:104220000020E2490860E8490860E248006810B1EF
:104230000020E1490860704710B5FCF730FC3520DC
:10424000FCF799FEE148FCF771FC002010BD014627
:104250000868704770B504460D4629462046FCF7AD
:10426000F6FC002070BD10B53520FCF784FEFCF78D
:104270001CFC002010BD10B5D44B4AF6552118681F
:10428000884201D0012010BD00221AE002EB42005A
:10429000CF4901EB0010C06988B102EB4201CC4C60
:1042A00004EB0111C969C94C04EB8100FFF7CFFF92
:1042B00002EB4201C64C04EB011149690860501C35
:1042C00082B2062AE2D30020DDE710B5FFF7B4FF83
:1042D000002419E004EB4400BD4901EB0010C06963
:1042E00080B104EB44020B4603EB021252691168E1
:1042F00004EB440203EB0212D269B44B03EB8200DD
:10430000FFF7A8FF601C84B2062CE3D34AF65521C0
:10431000AE48FFF79FFFFFF7A6FFFFF7ACFF0020B7
:1043200010BDAC480068AC49096848434FF47A7145
:1043300090FBF1F1A9480068A94A126850434FF474
:104340007A7290FBF2F0DD22504342F2107290FB41
:10435000F2F0081AA3490860A34800689849096860
:1043600048434FF47A7190FBF1F0A04908609B48F4
:1043700000689B49096848434FF47A7190FBF1F05B
:104380009B4908607047704700209A4909780129C5
:1043900001D1480244E097490978022902D14FF43B
:1043A00010603DE093490978052902D14FF440702F
:1043B00036E090490978062902D14FF480602FE059
:1043C0008C4909780B2902D14FF4A06028E0894973
:1043D00009780C2901D1C80122E086490978082909
:1043E00002D14FF4E0601BE082490978092902D12B
:1043F0004FF4006014E07F4909780A2902D14FF494
:1044000080700DE07B4909780D2909DB794909782D
:10441000152905DC774909780C3989B241F4807097
:104420000021744A117018B10121734A116002E031
:104430000021714A116070472DE9FF4F87B0824615
:1044400090461D46DDE9149B169F00208DF8140050
:10445000B9F1000F05DA2D208DF80800C9F1000927
:1044600002E020208DF80800BBF10A0F02DD4FF0BA
:104470000A0B04E0BBF1000F01DA4FF0000B0B2F29
:1044800001DD0B2702E0002F00DA00270FB90C2016
:1044900006900C24012619E0601EC4B2C4F10B0082
:1044A000584503D12E2002A908550FE00A2099FB98
:1044B000F0F100FB1190303002A908550A2099FB59
:1044C000F0F9B74200D10694701CC6B2012CE3DCAF
:1044D0000B2F09D1ABB2CDF800809DF808205046D3
:1044E0000899FEF749FE07E000959DF8082043462D
:1044F00050460899FEF740FE4048007850441FFAA5
:1045000080FA0124002631E0069884420BD1ABB238
:1045100002A8CDF80080025D50460899FEF72CFEF7
:10452000701CC6B21BE002A8005D30280DD166B930
:1045300002A9601C085C2E2807D043462022009563
:1045400050460899FEF718FE09E002A80095025DA2
:10455000434650460899FEF70FFE701CC6B2274826
:10456000007850441FFA80FA601CC4B20B2CCBDDDB
:104570000BB0BDE8F08F00B5FFF77DFE00BD10B5B4
:1045800096B0C8200D9000200C9007200B900020C2
:104590000A900990159042E03C0200203802002069
:1045A000809FD54C3C0000202C0C004018020020BD
:1045B0002002002038000020DC010020AC01002097
:1045C00004020020D40100201C02002000F807088B
:1045D00040000020B801002000020020B0010020AF
:1045E0000802002080010020BC010020880100207A
:1045F0007C0100202A000020280200201C0000204E
:10460000159800EB4000FE4901EB00104069FD4A9F
:104610000168159842F820101598401C15901598BF
:104620000628EDD36FF00300159041E04FF6FF70C0
:104630000090F5480078C0EB001040001030F249BF
:104640000978C1EB011149001031C1F5A07100EBEF
:104650006100401E1599084480B20790EB4800782D
:10466000C0EBC000C0F1F001159800EB510080B222
:104670000890E6480078C0EBC000C0F1F001159842
:1046800000EB510080B20690DF480078C0EB0010CC
:1046900040001030C0F5A071159800EB610080B2A9
:1046A000059006A90EC9FEF7BEFB1598401C159093
:1046B00015980028BADB6FF0030015903FE04FF625
:1046C000FF700090D1480078C0EBC000CF49097856
:1046D000C1EBC101C1F1F00100EB5100401E159981
:1046E000084480B20890C8480078C0EB0010400031
:1046F0001030C0F5A071159800EB610080B20790F2
:10470000C2480078C0EBC000C0F1F001159800EB82
:10471000510080B20690BC480078C0EB0010400009
:104720001030C0F5A071159800EB610080B20590C3
:1047300006A90EC9FEF777FB1598401C1590159831
:104740000028BCDB6FF0030015904CE000200090C7
:10475000AE480078C0EBC000AC490978C1EBC1019C
:10476000C1F1F00100EB5100401E1599401A80B2D2
:104770000890A5480078C0EB001040001030A24916
:104780000978C1EB011149001031C1F5A07100EBAE
:104790006100401E1599401A80B207909B4800782E
:1047A000C0EBC00099490978C1EBC101C1F1F0012A
:1047B00000EB5100401E1599401A80B206909248B5
:1047C0000078C0EB001040001030C0F5A07004214C
:1047D00001EB600080B2059006A90EC9FEF723FB2D
:1047E0001598401C159015980028AFDB6FF003005A
:1047F000159050E00020009084480078C0EBC00085
:1048000082490978C1EBC101C1F1F00100EB51000F
:10481000401E1599401A80B208907B480078C0EB82
:1048200000104000103078490978C1EB01114900AF
:104830001031C1F5A07100EB6100401E1599401ABE
:1048400080B2079070480078C0EB00104000103034
:104850006D490978C1EB011149001031C1F5A07112
:1048600000EB6100401E1599401A80B20590674820
:104870000078C0EBC000C0F1F000042101EB500053
:1048800080B206900146DDE907230598FEF7CBFAD2
:104890001598401C159015980028ABDB47F6FF7063
:1048A000009059480078C0EB001040001030564985
:1048B0000978C1EB011149001031C1F5A07100EB7D
:1048C0006100401E80B2079050480078C0EBC000E5
:1048D000C0F1F0004D49097801EB5000401E80B254
:1048E00008904A480078C0EBC000C0F1F000C0F367
:1048F0004F00069044480078C0EB00104000103094
:10490000C0F5A070C0F34F00059006A90EC9FEF7D0
:104910008AFA3E480078401000EB80001590159808
:10492000C0F5A070401014904FF0FF304FF4784164
:10493000002237A3CDE90032CDE9021033480078D8
:10494000C0EBC000C0F1F0003049097801EB500025
:10495000401E80B20890DDE914010844401E80B278
:1049600007902A480078C0EBC000C0F1F000C0F307
:104970004F000690149880B2059006A90EC9FEF764
:10498000E7FC25480068062803D305202249086073
:1049900006E021480068002802DA00201E4908606D
:1049A0001E480068092803DD09201C49086006E04C
:1049B0001A480068002802DA002018490860ECE371
:1049C0000B9800287DD011480078C0EBC000C0F1E2
:1049D000F0000E49097801EB500014900E48016870
:1049E0000F480068401C814206DC0D4801680A48F7
:1049F0000068401C814216DD0B9840F0040011E075
:104A000040000020700200201C0000201D0000203B
:104A10004D454E550000000064010020600100205B
:104A20006C0100200B90FE480068FE49096888422E
:104A300008DAFB480068FB4908600B9840F0040066
:104A40000B9030E0F6480168F64800680C3081426F
:104A500009DBF34800680B38F24908600B9840F016
:104A600004000B901FE0F0480068ED490968884297
:104A700019D0ED480068EB490968411AEB48027803
:104A8000149801FB02001290E5480068E5490968A6
:104A9000411AE6480278149801FB020011900B9825
:104AA00040F002000B900B9800F00400F0B34FF2BE
:104AB000DE700090DD480078C0EBC000DB4909786B
:104AC00000E0B7E3C1EBC101C1F1F00100EB51001F
:104AD000401E80B20890D6480078C0EB001040001D
:104AE0001030D3490978C1EB011149001031C1F5EB
:104AF000A07100EB6100401E80B20790CB480078A7
:104B0000C0EBC000C0F1F000C849097801EB5000CB
:104B100080B20690C6480078C0EB0010400010300C
:104B2000C0F5A070C0F34F00059000E004E006A9B6
:104B30000EC9FEF778F932E00B9800F0020070B36E
:104B40004FF2DE700090BA480078C0EB00104000D1
:104B50001030B7490978C1EB011149001031C1F596
:104B6000A07100EB6100401E80B20790AF49097848
:104B700012980844401E80B20890129880B20690A5
:104B8000AB480078C0EB001040001030C0F5A070BA
:104B9000C0F34F00059006A90EC9FEF744F9A148DD
:104BA000006813900020159035E31398062800D371
:104BB00035E39B491398096888427DD10B9800F032
:104BC0000600E8B31F20009099480078C0EB001061
:104BD0004000103096490978C1EB011149001031AD
:104BE000C1F5A07100EB6100401E80B207908F49B3
:104BF000097814980844401E80B20890149880B236
:104C000006908B480078C0EB001040001030C0F5D3
:104C1000A070C0F34F00059006A90EC9FEF703F976
:104C20004FF0FF32130C0021139800EB4000814C31
:104C300004EB00108DE80B0003927D48007800E043
:104C40002BE0C0EB00104000103079490978C1EB2F
:104C5000011149001031C1F5A07100EB6100401E47
:104C600080B207907149097814980844401E80B2B8
:104C70000890149880B206906D480078C0EB001040
:104C800040001030C0F5A070042101EB600080B23C
:104C9000059006A90EC9FEF75BFB6749139851F80A
:104CA000201000EB4000634A02EB001040690068EE
:104CB000814204D0012000E0D1E0109001E000200A
:104CC00010900B9800F00600C0BB109828B95B4804
:104CD00000685B490968884230D00022139800EBD5
:104CE0004000544901EB0010007E534B139953F8D8
:104CF0002110CDE9010200914D480078C0EB001071
:104D0000400010304A490978C1EB011149001031C7
:104D1000C1F5A07100EB6100401E4549097801EB27
:104D20004101A0EB810080B20790149880B21F234C
:104D30001A46014608900798FFF77EFB109858B175
:104D4000139800EB40003B4901EB001040693A4AE0
:104D50000168139842F82010139800EB4000354981
:104D600001EB0010006A98B334480078139901EB06
:104D70004101304A02EB0111097E2F4B139A53F87F
:104D80002220CDE90021029029480078C0EB0010D4
:104D90004000103026490978C1EB0111490010315B
:104DA000C1F5A07100EB6100401E2149097801EBBB
:104DB0004101A0EB810080B20790149880B21F23BC
:104DC0004FF6FF72014608900798FFF735FB17E290
:104DD000FFE70022139800EB4000164901EB00109A
:104DE000007E154B139953F82110CDE90102009173
:104DF0000F480078C0EB0010400010300C490978D3
:104E0000C1EB011149001031C1F5A07100EB610047
:104E1000401E0749097801EB4101A0EB810011E038
:104E200064010020680100206C0100201D000020AA
:104E30001C000020400000207002002060010020C3
:104E40007001002080B20790149880B21F2340F2B6
:104E5000FF72014608900798FFF7EEFAD0E1FE498D
:104E60001398096888427DD14FF0FF3100221398D2
:104E700000EB4000F94C04EB0010CDE90002F848CB
:104E8000CDE902210078C0EB001040001030F44959
:104E90000978C1EB011149001031C1F5A07100EB97
:104EA0006100401E80B20790EE49097814980844CA
:104EB000401E80B20890149880B20690E8480078AE
:104EC000C0EB001040001030C0F5A070042101EBD1
:104ED000600080B2059006A90EC9FEF739FAE249D2
:104EE000139851F8201000EB4000224602EB00100E
:104EF00040690068814202D00120109001E000204A
:104F00001090109858B1139800EB4000D34901EB72
:104F100000104069D44A0168139842F82010139891
:104F200000EB4000CD4901EB0010006A88B300227D
:104F3000139800EB400001EB0010007ECA4B139960
:104F400053F82110CDE901020091C5480078C0EB6B
:104F5000001040001030C2490978C1EB011149002E
:104F6000103100E049E0C1F5A07100EB6100401E86
:104F7000BB49097801EB4101A0EB810080B20790A9
:104F8000149880B2531E014608900798FFF754FA10
:104F900036E1FFE70022139800EB4000AF4901EB38
:104FA0000010007EB04B139953F82110CDE9010297
:104FB0000091AB480078C0EB001040001030A849C9
:104FC0000978C1EB011149001031C1F5A07100EB66
:104FD0006100401EA249097801EB4101A0EB81006C
:104FE00080B20790149880B2531E4FF47842014665
:104FF00008900798FFF720FA02E10B9800F00400F0
:10500000D0B34FF0FF310022139800EB4000934CD7
:1050100004EB0010CDE900029148CDE902210078AF
:10502000C0EB0010400010308D490978C1EB011130
:1050300049001031C1F5A07100EB6100401E80B243
:1050400007908849097814980844401E80B2089057
:10505000149880B2069082480078C0EB001040009F
:105060001030C0F5A070042101EB600080B2059003
:1050700006A90EC9FEF76CF97B49139851F8201068
:1050800000EB4000754A02EB001040690068814265
:1050900002D00120109001E0002010900B9800F049
:1050A000040098BB109888B30022139800EB4000CE
:1050B0006A4901EB0010007E6B4B139953F82110E5
:1050C000CDE90102009166480078C0EB0010400075
:1050D000103063490978C1EB011149001031C1F565
:1050E000A07100EB6100401E5D49097801EB4101B0
:1050F000A0EB810080B20790149880B24FF2DE736B
:105100001A46014608900798FFF796F9109858B18B
:10511000139800EB4000514901EB00104069524ADE
:105120000168139842F82010139800EB40004B4997
:1051300001EB0010006A78B30022139800EB4000E6
:1051400001EB0010007E484B139953F82110CDE974
:105150000102009142480078C0EB0010400010307E
:105160003F490978C1EB011149001031C1F5A07127
:1051700000EB6100401E3A49097801EB4101A0EBC8
:10518000810080B20790149880B2531E01460890A7
:105190000798FFF751F933E000E07AE30022139813
:1051A00000EB40002D4901EB0010007E2E4B1399BF
:1051B00053F82110CDE90102009129480078C0EB95
:1051C00000104000103026490978C1EB0111490058
:1051D0001031C1F5A07100EB6100401E2049097833
:1051E00001EB4101A0EB810080B20790149880B2DE
:1051F000531E4FF47842014608900798FFF71CF9B8
:105200001598401C15901398401C13901549097867
:1052100014980844149015980C28FFF6C6AC00BFEB
:105220001248006812490860124800680A4908607C
:1052300000200B90FFF7A8F80C900F490C9808601D
:105240000C98002837D00C9800F47F40B0F5007F10
:105250001AD10998B0B111E06C0100204000002083
:105260001C0000201D0000207002002060010020B2
:10527000700100206401002038000020FFF725F8AD
:105280000020099016B010BD0C9800F47F40B0F5D6
:10529000407F11D1FE48006800EB4000FD4901EB62
:1052A0000010006AFC490968884204DDFA48006879
:1052B000401CF94908609FE20C9800F47F40B0F56B
:1052C000806F09D1F44800680028F4DDF2480068D6
:1052D000401EF14908608FE20C9800F47F40B0F561
:1052E000E06F7CD1EA48006800EB4000E94901EB3F
:1052F0000010006A0028DED0E7480068092820D1A5
:10530000E348006800EB400001EB001040690068D2
:105310000028D0DDDE48006800EB400001EB001003
:10532000406900684042DA49096801EB4101D94A05
:1053300002EB0111496908600998401CC0B209904C
:105340005AE2D548006848BBD148006800EB4000ED
:10535000D04901EB001040690068CD49096801EBB4
:105360004101CC4A02EB0111496A8842A3DDC848D9
:10537000006800EB4000114601EB00104069006836
:10538000401EC349096801EB410102EB0111496963
:1053900008600998401CC0B209902DE201200F90CE
:1053A000159007E00F9800EB800040000F901598D3
:1053B000401C1590B849159809688842F2DBB4483A
:1053C000006800EB4001B34800EB01104069016840
:1053D0000F9891FBF0F00A2190FBF1F200E03AE027
:1053E00001FB12000E90AA48006800EB4001A9489A
:1053F00000EB0110406901680F98081A0F90A4484B
:10540000006800EB4001A34800EB0110416A0F98CF
:1054100081420ADC9E490F98096801EB41019D4ACF
:1054200002EB01114969086010E09948006800EB3F
:105430004000984901EB0010406A9549096801EB6A
:105440004101944A02EB0111496908600998401C26
:10545000C0B20990D0E10C9800F47F40B0F5006F25
:105460007ED18B48006800EB40008A4901EB0010B8
:10547000006A002891D088480068092820D1844813
:10548000006800EB400001EB001040690068002854
:10549000E0DA7F48006800EB400001EB0010406953
:1054A000006840427A49096801EB4101794A02EB00
:1054B0000111496908600998401CC0B209909BE13C
:1054C0007548006848BB7248006800EB40017148AD
:1054D00000EB0110406900686D49096801EB41016A
:1054E0006C4A02EB0111896A8842B3DA68480068A5
:1054F00000EB4001104600EB011040690068401CC1
:105500006349096801EB410102EB01114969086037
:105510000998401CC0B209906EE101200F901590CF
:1055200007E00F9800EB800040000F901598401C9A
:1055300015905949159809688842F2DB544800686B
:1055400000EB4000534901EB0010406901680F98DF
:1055500091FBF0F00A2190FBF1F201FB120000E058
:1055600038E00E904A48006800EB4001494800EBE3
:105570000110406901680F9808440F904448006882
:1055800000EB4001434800EB0110816A0F98814213
:105590000ADB3F490F98096801EB41013D4A02EBE4
:1055A00001114969086010E03948006800EB4001CA
:1055B000384800EB0110806A3549096801EB410168
:1055C000344A02EB0111496908600998401CC0B2D5
:1055D000099011E10C9800F47F40B0F5A06F29D13B
:1055E000099818B1FEF771FE00200990284800685C
:1055F000002805DD26480068401E2549086002E0B5
:105600000521234801602248006800EB4000214941
:1056100001EB0010006A20490968884209DA1C4839
:10562000006800EB40011B4800EB0110016A1A48BA
:105630000160E1E00C9800F47F40B0F5C06F30D11C
:10564000099818B1FEF741FE002009901048006843
:10565000052805D20E480068401C0D49086002E08C
:1056600000210B4801600A48006800EB400109482E
:1056700000EB0110006A08490968884210DA044802
:10568000006800EB4001034800EB0110016A05E0EF
:105690006401002040000020600100207E4801607D
:1056A000AAE00C9800F47F40B0F5807F7ED17B4863
:1056B000006800EB40007A4901EB0010006A40B33B
:1056C0000C98C0B20E907448006818BB734800680C
:1056D00000EB400001EB0010416A0E98814218DC9B
:1056E0006E48006800EB40006D4901EB0010816AD4
:1056F0000E9881420DDB69490E98096801EB410162
:10570000674A02EB0111496908600998401CC0B260
:10571000099071E001200F90159007E00F9800EBC1
:10572000800040000F901598401C15905A4915981C
:1057300009688842F2DB5948006800EB400058498C
:1057400001EB0010406901680F9891FBF0F00A210D
:1057500090FBF1F201FB12010E98401A0E904F4897
:10576000006800EB40004E4901EB00104069026800
:10577000DDE90E0100FB01200E904848006800EBB7
:105780004000474901EB0010416A0E98814233DC2A
:105790004248006800EB4000414901EB0010816A7B
:1057A0000E98814228DB3D490E9800E015E009681B
:1057B00001EB41013A4A02EB01114969086009987D
:1057C000401CC0B2099034480068002814DD3248FB
:1057D0000068401E304908600EE00C9800F47F40DD
:1057E000B0F5106F06D1FEF7CEFD0B9840F001002A
:1057F0000B9001E000200C900C9830B10B9840F019
:1058000001000B9000200C9001E000200B900D98FF
:1058100040B9FEF786FDC8200D900B9840F00100BE
:105820000B9003E00D98401E80B20D900B9828B3AA
:10583000002013901FE01B49139851F8201000EB33
:105840004000174A02EB00104069006881420FD007
:10585000139800EB4000114601EB0010C06A38B10C
:10586000139800EB400001EB0010C06A08908047DD
:105870001398401C139013980628DCD300BF0A48E5
:10588000008800F001000028F9D04FF6FE700649AC
:105890000880FFF795B80000600100206401002037
:1058A00040000020700200201014004010B5FDF7E9
:1058B0003AFBFDF76FFB0520FDF720FA07204FF0BC
:1058C000D84108800020F84908800520FDF716FA25
:1058D00012204FF0D84108804FF48E70F2490880B2
:1058E000A4204FF0D84108800120EF49088008200B
:1058F0004FF0D84108800F20EB4908800A204FF074
:10590000D84108800820E84908800D204FF0D84190
:1059100008800820E449088030204FF0D8410880F2
:1059200040F20770E049088031204FF0D8410880EC
:105930000720DD49088032204FF0D841088040F22E
:105940000360D949088033204FF0D84108804FF4D4
:10595000E060D549088034204FF0D841088040F2FB
:105960000220D149088035204FF0D841088002201C
:10597000CD49088036204106088041F60F70CA499B
:10598000088037204FF0D841088040F20770C649A0
:10599000088038204FF0D84108800020C249088094
:1059A00039204FF0D84108800020BF4908803A20B4
:1059B0004FF0D841088040F20770BB4908803B2077
:1059C0004FF0D84108800020B74908803C204FF0B4
:1059D000D84108800720B44908803D204FF0D841C5
:1059E00008800020B04908800520FDF787F90720CE
:1059F0004FF0D84108800120AB49088017204FF0B4
:105A0000D84108800120A84908800520FDF776F9D3
:105A100010204FF0D84108804FF4BD50A2490880B3
:105A200011204FF0D841088040F217209E4908808D
:105A300012204FF0D84108804FF48F709A490880A7
:105A400013204FF0D84108804FF4706096490880C9
:105A50002A204FF0D841088000209349088029204F
:105A60004FF0D84108800A208F49088012204FF05B
:105A7000D84108804FF49F708B49088050204FF028
:105A8000D841088000208849088051204FF0D84133
:105A90000880EF208449088052204FF0D8410880C8
:105AA00000208149088053204FF0D841088040F2FF
:105AB0003F107D49088060204FF0D84108804FF4A6
:105AC0001C507949088061204FF0D841088001209E
:105AD000754908806A204FF0D8410880002072493B
